:02000000CFC06F
:10000200FECFFDCFFCCFFBCFFACFF9CFF8CFF7CFA2
:10001200F6CFF5CFF4CFF3CFF2CFF1CFF0CFEFCFD2
:10002200EECFEDCF1027E80364000A0001000010B4
:100032000001100001004F70656E20446F6F722046
:100042004F6B00446F6F72204F70656E6E696E6702
:10005200005475726E204F6E205265642E005265F8
:1000620064204C6564205475726E6564204F6E0086
:100072005475726E204F6E20426C756500426C752D
:1000820065204C6564205475726E6564204F6E0065
:100092005475726E4F6E20477265656E00477265C9
:1000A200656E204C6564205475726E6564204F6ED7
:1000B200005475726E204F6E204379616E00437951
:1000C200616E204C6564205475726E6564204F6EBB
:1000D200005475726E204F6666204C6564004C6554
:1000E2006473205475726E6564204F666620210029
:1000F2005475726E4F6E507572706C6500507572E9
:10010200706C65204C6564205475726E6564204F76
:100112006E005475726E4F6E205768697465005791
:1001220068697465204C6564205475726E6564203C
:100132004F6E005475726E4F6E59656C6C6F77001E
:1001420059656C6C6F77204C6564205475726E65CE
:1001520064204F6E00556E6B6E6F776E20436F6D2D
:100162006D616E6400000D00600138000D006D01CC
:1001720053000D007A0172000D00870192000D00FC
:100182009401B3000D00A101D3000D00AE01F200F5
:100192000D00BB0114010D00C80135010000F894E7
:1001A200EE27ECBBF1E0FBBFEBBFE5BF8DE0A2E0C9
:1001B200BB27ED938A95E9F780E094E0A0E6ED9302
:1001C2000197E9F7E8E6F1E085919591009761F0F2
:1001D200A591B59105901590BF01F00105900D9282
:1001E2000197E1F7FB01F0CFEFE5EDBFE4E0EEBFF1
:1001F200C0E6D1E000C0A197EFEFE7BBE0E0E8BBCB
:10020200EFE3E4BBE4E0E5BBE0E0EBB9E8E1EAB947
:10021200E6E8E0BDE0E0E0BDE3E3E9B9FE0132D2A9
:10022200A4E1B0E085D031D2FE0132962BD2ACE00F
:1002320014D2E0E0E8A329D2A0E6B1E029D261F429
:10024200E5E4F0E01FD280E0C0D12296A89AACE2A9
:10025200B1E04ED2A8985FC018D2ADE6B1E018D294
:1002620031F4A998AC9AAB9AE0E6F0E04FC00DD217
:10027200AAE7B1E00DD231F4A99AAC98AB9AEFE7B4
:10028200F0E044C002D2A7E8B1E002D231F4A99A68
:10029200AC9AAB98EFE9F0E039C0F7D1A4E9B1E04C
:1002A200F7D131F4A99AAC98AB98E0ECF0E02EC00B
:1002B200ECD1A1EAB1E0ECD131F4A99AAC9AAB9AB3
:1002C200E0EEF0E023C0E1D1AEEAB1E0E1D131F4F9
:1002D200A998AC98AB9AEFEFF0E018C0D6D1ABEB8F
:1002E200B1E0D6D131F4A998AC98AB98E1E2F1E053
:1002F2000DC0CBD1A8ECB1E0CBD131F4A998AC9A26
:10030200AB98E2E4F1E002C0E7E5F1E0FA93EA93A8
:1003120080E05BD1229682CFFFCF5F9BFECFECB114
:100322000895AA935D9BFECFE881ECB921960895CA
:10033200B2D1F8D10E811F8128853985002E012A7C
:10034200D1F0EBDF5E2F583049F4A8D10A171B0712
:1003520020F4215030400F5F1F4FF3CF5A3059F035
:100362003F932F932F5F3F4FE52FAF91BF91EC93B8
:1003720001501040E3CFD901E0E0EC93E885F98524
:10038200D8D12A96089587D1AA81CBDFA881B981D5
:10039200ED91FD913196FE93EE93239608957BD1D4
:1003A2002697C0D110E0AC85BD85E0E0F0E0ED938A
:1003B200FC93EA89FB893196EA8BFB8B3197E491B6
:1003C2002E2FE03009F4FBC0E12FE03031F425326A
:1003D20011F411E001C065D1F1C0E130A1F4253280
:1003E20011F45FD1EAC012E040E000E02D3211F4D6
:1003F20001E0E4C02B3211F44BE2E0C0203211F4F0
:1004020040E2DCC002C0E23039F450E013E02033B5
:1004120011F40068D3C003C0E33009F0CFC0203329
:1004220010F02A3308F007C0AAE05A9F502DE22F9D
:10043200E0535E0FC3C0E22FE33639F439D13BD12A
:1004420037D1A481AA933BD1B8C0E33729F43DD177
:100452003ED1ECD01E2F07C0E03749F436D137D158
:10046200F0D01E2F086002600F7730E02DC0E43616
:1004720011F0E93611F4046002C0E53729F4E6E22E
:10048200F0E02CD115E00BC0E83511F4086003C090
:10049200E83709F092C0E0E3F0E020D114E002FF77
:1004A20011C013D11ED1AB85AA2332F4EA85FB8594
:1004B2002DD1EA87FB874DE2403011F01F5F01C06A
:1004C2000B7F02C002D10DD100FD10C0151770F4D0
:1004D20007FF08C002FF04C00B7F242F115001C088
:1004E20020E301C020E2DDD05150F0CF312F01FFD7
:1004F20014C0303089F003FF05C0EE81FF812591E1
:10050200EDD004C0CBD02D91AE83BF83CAD0503082
:1005120009F051503150EDCF47C020E3EE81FF8109
:10052200FDD0E887F987EE81FF813296D7D0E88542
:10053200F985AA85BB85AE17BF0750F02F5FA88546
:10054200B985EA85FB85EA1BFB0BEA87FB87EFCFC0
:100552002A3328F003FF02C0295F01C0295D04FD90
:1005620019C0213320F4A885B985119709F409C06F
:10057200531710F000FF01C011C020E207FF0AC0AC
:1005820020E3006102FF06C00B7F4A9398D05030EF
:1005920009F0515086D0503009F051503150A885A1
:1005A200B985129708F0B9CF00FF07C0503029F083
:1005B2005150E0E2EA9383D0F9CF10E0FACEAC8555
:1005C200BD85A8D0B6D064960895FF92F82E2697DE
:1005D200ADD0DE01149696D08D01E0E0EC83ED8380
:1005E200EE83EF83DE0118968DD094D04BD01A9310
:1005F2000A93E4ECF1E046D0DE011896D0DE9DD0FD
:100602002896FF90089547D0E991F991A991B9915F
:100612006D917191671721F46623D1F7EE27089542
:10062200671BE1F3E1E008F4E250089534D0A991A8
:10063200B991EE27FF276D91662311F03196FBCF1A
:10064200089529D0AA27BB27E991F99105900020A6
:1006520011F01196FBCFFD010895AA937991E991CA
:10066200F991A991B991CD01772351F07A956191D0
:100672006D936623C9F7772319F07A956D93FBCFB3
:10068200FC010895FA93EA930895FE017496FACF55
:10069200BADFE0300895BA93AA930895AE81BF817C
:1006A20008952A93AD85BE85EF85F8890995089549
:1006B200E889F98908953497E88BF98B0895AD8517
:1006C200BE85EF85F88909950895F2DFF4CFA889F0
:1006D200B98914961FD0EE83FF83E0CFEE83FF83A8
:1006E2000895A889B989149615D0EA87FB870895D9
:1006F200109639F080ED97E00197F1F7A8951197E0
:10070200C9F708950024AF0DB01D0895F195E19544
:10071200F0400895ED91FC91119708950590F491A0
:10072200E02D08955A934A933A932A931A930A937F
:1007320008955D814C813B812A8119810881089548
:00000001FF
