:04000000DEC0FECF91
:10000400FDCFFCCFFBCFFACFF9CFF8CFF7CFF6CFA8
:10001400F5CFF4CFF3CFF2CFF1CFF0CFEFCFEECFD8
:10002400EDCF1027E80364000A000100001000016E
:10003400100001002020202052657A61536B617208
:100044002020202000522E532E4B4152204F706509
:100054006E00446F6F72204F70656E6E696E67003C
:100064005475726E204F6E205265642E0052656482
:10007400204C6564205475726E6564204F6E005484
:1000840075726E204F6E20426C756500426C75650A
:10009400204C6564205475726E6564204F6E005464
:1000A40075726E4F6E20477265656E0047726565A6
:1000B4006E204C6564205475726E6564204F6E002A
:1000C4005475726E204F6E204379616E00437961DE
:1000D4006E204C6564205475726E6564204F6E000A
:1000E4005475726E204F6666204C6564004C6564DE
:1000F40073205475726E6564204F66662021005427
:1001040075726E4F6E507572706C650050757270BA
:100114006C65204C6564205475726E6564204F6E66
:10012400005475726E4F6E20576869746500576885
:10013400697465204C6564205475726E6564204F43
:100144006E005475726E4F6E59656C6C6F77005902
:10015400656C6C6F77204C6564205475726E6564B1
:10016400204F6E00556E6B6E6F776E20436F6D6D12
:10017400616E640080C01100600138000D007101DF
:1001840049000D007E0164000D008B0183000D0009
:100194009801A3000D00A501C4000D00B201E40004
:1001A4000D00BF0103010D00CC0125010D00D90193
:1001B40046010200E60178010000F894EE27ECBB4A
:1001C400F1E0FBBFEBBFE5BF8DE0A2E0BB27ED9301
:1001D4008A95E9F780E094E0A0E6ED930197E9F7CA
:1001E400EAE7F1E085919591009761F0A591B591C9
:1001F40005901590BF01F00105900D920197E1F76C
:10020400FB01F0CFEFE5EDBFE4E0EEBFC0E6D1E0E7
:1002140000C0A197EFEFE7BBE0E0E8BBEFE3E4BB8E
:10022400E0E0E5BBEBB9E8E1EAB9E6E8E0BDE0E02F
:10023400E0BDE3E3E9B9A0E1E0D0AA9AE0E0EA9303
:10024400A0E0A0D0A0E6B1E0C9D0A0EDB7E0F8D21C
:10025400A6D0FE01B0D2A4E1B0E003D1AFD2FE013A
:100264003296A9D2ACE092D2E0E0E8A3A7D2A1E70B
:10027400B1E0A7D261F4E6E5F0E09DD280E03ED2A1
:100284002296A89AACE2B1E0DBD2A8985FC096D2DD
:10029400AEE7B1E096D231F4A998AC9AAB9AE1E713
:1002A400F0E04FC08BD2ABE8B1E08BD231F4A99A25
:1002B400AC98AB9AE0E9F0E044C080D2A8E9B1E0A0
:1002C40080D231F4A99AAC9AAB98E0EBF0E039C053
:1002D40075D2A5EAB1E075D231F4A99AAC98AB987D
:1002E400E1EDF0E02EC06AD2A2EBB1E06AD231F4C3
:1002F400A99AAC9AAB9AE1EFF0E023C05FD2AFEBDE
:10030400B1E05FD231F4A998AC98AB9AE0E1F1E0A6
:1003140018C054D2ACECB1E054D231F4A998AC98E2
:10032400AB98E2E3F1E00DC049D2A9EDB1E049D2C6
:1003340031F4A998AC9AAB98E3E5F1E002C0E8E6A1
:10034400F1E0FA93EA9380E0D9D1229682CFFFCFED
:10035400AA93E8B3EF70AE2FE881E07FEA2BE8BB05
:1003640033D2C29A31D2C2982FD279C0AA93A8812B
:10037400EFDFE881E295E883A881EADF85E88A95E2
:10038400F1F76DC0AA93E881F0E0EA51FE4FE081F5
:10039400A981AE0FEBDF5980488022960895A2E030
:1003A40017D2ACE0E3DFA1E013D2E0E04E2E5E2EE4
:1003B4000895AA93A881AA3011F0571448F0E0E0F8
:1003C400EA934394A42DDEDFA881AA3009F447C040
:1003D4005394C09AA881CADFC09841C0FDD11A9332
:1003E400A981BA81ED91A983BA831E2FE03019F057
:1003F400A12FDFDFF5CF188169C0AA93E7B3E06FBF
:10040400E7BBBA9AB89AB99AC298C098C19878804A
:10041400E881E058E093E801E881E054E093E901E1
:10042400A4E1B0E00DD2DBD1DAD1D9D1A0E290DFE2
:1004340088EC90E00197F1F7A8E298DFA4E096DF5A
:10044400A5E894DFA6E092DFAADF09C05F9BFECF98
:10045400ECB10895AA935D9BFECFE881ECB9219697
:100464000895BAD107D20E811F8128853985002EBF
:10047400012AD1F0EBDF5E2F583049F4B7D10A17C7
:100484001B0720F4215030400F5F1F4FF3CF5A3029
:1004940059F03F932F932F5F3F4FE52FAF91BF91BB
:1004A400EC9301501040E3CFD901E0E0EC93E885F0
:1004B400F985E7D12A9608958FD1AA81CBDFA88147
:1004C400B981ED91FD913196FE93EE9323960895B3
:1004D40083D12697CFD110E0AC85BD85E0E0F0E074
:1004E400ED93FC93EA89FB893196EA8BFB8B319778
:1004F400E4912E2FE03009F4FBC0E12FE03031F419
:10050400253211F411E001C074D1F1C0E130A1F43D
:10051400253211F46ED1EAC012E040E000E02D3241
:1005240011F401E0E4C02B3211F44BE2E0C02032BC
:1005340011F440E2DCC002C0E23039F450E013E0D0
:10054400203311F40068D3C003C0E33009F0CFC0F6
:10055400203310F02A3308F007C0AAE05A9F502D28
:10056400E22FE0535E0FC3C0E22FE33639F448D1E3
:100574004AD146D1A481AA934AD1B8C0E33729F419
:100584004CD14DD1ECD01E2F07C0E03749F445D1F2
:1005940046D1F0D01E2F086002600F7730E02DC0E6
:1005A400E43611F0E93611F4046002C0E53729F4A9
:1005B400E6E2F0E03BD115E00BC0E83511F4086049
:1005C40003C0E83709F092C0E0E3F0E02FD114E073
:1005D40002FF11C022D12DD1AB85AA2332F4EA85C2
:1005E400FB853CD1EA87FB874DE2403011F01F5F69
:1005F40001C00B7F02C011D11CD100FD10C0151722
:1006040070F407FF08C002FF04C00B7F242F1150B1
:1006140001C020E301C020E2ECD05150F0CF312FD3
:1006240001FF14C0303089F003FF05C0EE81FF8163
:100634002591FCD004C0DAD02D91AE83BF83D9D0EC
:10064400503009F051503150EDCF47C020E3EE81D6
:10065400FF810CD1E887F987EE81FF813296E6D0DD
:10066400E885F985AA85BB85AE17BF0750F02F5FD3
:10067400A885B985EA85FB85EA1BFB0BEA87FB871E
:10068400EFCF2A3328F003FF02C0295F01C0295DA0
:1006940004FD19C0213320F4A885B985119709F404
:1006A40009C0531710F000FF01C011C020E207FF7A
:1006B4000AC020E3006102FF06C00B7F4A93A7D063
:1006C400503009F0515095D0503009F0515031500C
:1006D400A885B985129708F0B9CF00FF07C050303C
:1006E40029F05150E0E2EA9392D0F9CF10E0FACE2B
:1006F400AC85BD85B7D0C5D064960895FF92F82E19
:100704002697BCD0DE011496A5D08D01E0E0EC83E1
:10071400ED83EE83EF83DE0118969CD0A3D04BD0FB
:100724001A930A93EEE5F2E046D0DE011896D0DE85
:10073400ACD02896FF9008954FD0E991F991A991F2
:10074400B9916D917191671721F46623D1F7EE2762
:100754000895671BE1F3E1E008F4E25008953CD00A
:10076400A991B991EE27FF276D91662311F0319677
:10077400FBCF089531D0AA27BB27E991F9910590C1
:10078400002011F01196FBCFFD010895AA937991F1
:10079400E991F991A991B991CD01772351F07A9515
:1007A40061916D936623C9F7772319F07A956D9358
:1007B400FBCFFC010895FA93EA930895FE01749621
:1007C400FACFBADFE03008958DE08A95F1F7089505
:1007D400CDDDA3E0B0E034C0BA93AA930895A0E3BA
:1007E400B7DD88EC90E00197F1F70895AE81BF8101
:1007F40008952A93AD85BE85EF85F88909950895F6
:10080400E889F98908953497E88BF98B0895AD85C3
:10081400BE85EF85F88909950895F2DFF4CFA8899C
:10082400B98914961FD0EE83FF83E0CFEE83FF8354
:100834000895A889B989149615D0EA87FB87089585
:10084400109639F080ED97E00197F1F7A89511978C
:10085400C9F708950024AF0DB01D0895F195E195F1
:10086400F0400895ED91FC91119708950590F4914D
:10087400E02D08955A934A933A932A931A930A932C
:1008840008955D814C813B812A81198108810895F5
:00000001FF
